:0C0DBC00040841200000040C412000004D
:03000B00020B1FC6
:100B1F00C0E0C0F0C083C082C0D075D000C000C09C
:0D0B2F0001C002C003C004C005C006C0071D
:100B3C00758CFC758A18A2B4E4FE33FF7C007D0A28
:100B4C00120AFFAC06AD07EC120A7C7BCD7ACC798D
:100B5C00CC783D1208F8C004C005C006C007746606
:100B6C00FFFEFD7C3FAB0BAA0AA909A8081208F8E6
:100B7C00D003D002D001D0001208078F0B8E0A8D43
:100B8C00098C08A2B3E4FE33FF7C007D0A120AFF35
:100B9C00AC06AD07EC120A7C7BCD7ACC79CC783DD7
:100BAC001208F8C004C005C006C0077466FFFEFD3D
:100BBC007C3FAB0FAA0EA90DA80C1208F8D003D0DD
:100BCC0002D001D0001208078F0F8E0E8D0D8C0CE9
:100BDC00E4FFFE7DA07C40AB0BAA0AA909A8081271
:100BEC0009FE600A40087518007519018006751811
:100BFC0000751900E4FFFE7DA07C40AB0FAA0EA986
:100C0C000DA80C1209FE600A4008751A00751B012C
:100C1C008006751A00751B00E51965137004E5183C
:100C2C006512600E8518128519137516007517015B
:100C3C008006751600751700E51B65157004E51A1E
:0A0C4C0065146006851A14851B1557
:100C5600D007D006D005D004D003D002D001D000F2
:0B0C6600D0D0D082D083D0F0D0E0329C
:100D620043B22053B1DF43B10453B1FBE4F510F5B4
:100D720011F516F517F512751301F514F515D2B222
:100D8200C2B5D2B4D2B3E58954F04401F589D2A9EF
:050D9200D28CD2AF225B
:100D9700E4FDFCC3ED9FEC9E501AE4FAFB00000053
:100DA70000000BBB00010ABA02F3BB58F00DBD00EF
:040DB700010C80DFCC
:010DBB002215
:100CFD00120D62E5107057E511146025146039244A
:100D0D0002704BE517451660EAE513451270E4C213
:100D1D00B27F01FE120D97D2B575100075110180CD
:100D2D00D2E512451324FF92B2E515640145147006
:100D3D00C2F51075110280BBE512451324FF92B266
:100D4D00E515451470ADC2B5F510F51180A5E4F5A6
:050D5D0010F511809E5D
:10080000020AEAE86480F8E933E83360110460F032
:10081000ED33EC337009E8FCE9FDEAFEEBFF22045E
:1008200060DED3EB9FEA9EE99DE8C2E78CF0C2F759
:1008300095F0400CE8CCF8E9CDF9EACEFAEBCFFB25
:10084000120AB585D0F05804700320D5B3E80470BF
:10085000075002B2D5020AF492D5EC0460F7E4CC5A
:10086000C0E0C398F8603B94186008400DD0E0FBEE
:10087000020ACCE4FBFAC9FC8028E830E406E4C9AB
:10088000FBE4CAFCE830E305E4C9CACBFCE8540742
:100890006010F8C3E913F9EA13FAEB13FBEC13FC4D
:1008A000D8F130F52FC3E49CFCEF9BFFEE9AFEEDF0
:1008B00099FDD0E0FBEF4E4D4C701222DB03020A93
:1008C000F1EC2CFCEF33FFEE33FEED33FDED30E7C2
:1008D000EB020ACCEF2BFFEE3AFEED39FDD0E0FB48
:1008E00050130BBB0003020AF4ED13FDEE13FEEFF1
:0808F00013FFEC13FC020ACC1B
:1008F800EC4D6011E8497017ED33EC3304600DE4FA
:10090800FCFFFEFD22E933E8330470F8020AEA121C
:100918000AB558046009E4CC24815006285009021D
:100928000AF4284003020AF1C0E0EB4A7044B98097
:1009380006D0E0FB020AE0EF4E701CBD8008EBFF1A
:10094800EAFEE9FD80EBE98DF0A4FEE5F00209E19D
:10095800E9CDF9EAFEEBFFEF89F0A4FCE5F0CE89DA
:10096800F0A42EFFE435F0CD89F0A42DFEE435F097
:100978008067EF4E7005BD80D780C3EF8BF0A4ACC5
:10098800F0EE8BF0A42CFCE435F0F8EF8AF0A42C00
:10099800E5F038FCE433CB8DF0A42CFCE5F03BF813
:1009A800EE8AF0A42CFCE5F038F8E433CF89F0A403
:1009B8002CFCE5F038CF3400CE89F0A42FFFE5F009
:1009C8003EFEE433C98DF0A42EFEE5F039CD8AF061
:1009D800A42FFFE5F03EFEE43DFD33D0E0FB5007D9
:1009E8000BBB000F020AF4EC2CFCEF33FFEE33FED6
:0609F800ED33FD020ACC04
:1009FE0074F8CC6480CCC86480C8F58204604FC3A0
:100A0E00EB9FF5F0EA9E42F0E99D42F0E89C45F03E
:100A1E00603C501DE5825FFFE582D313CB5BCBF4C8
:100A2E002B5582FB50280ABA002409B900200880F1
:100A3E001DE5825BFBE582D313CF5FCFF4C3132F8B
:100A4E005582FF50090EBE00050DBD00010CC3EB13
:100A5E009FF5F0EA9E42F0E99D42F0E89C45F06079
:090A6E0007CC4820E701B3EC229B
:100A770075F020800E75F010800575F0087D007EFA
:100A8700007F003392D530D503120B11EC334010A1
:100A9700EF33FFEE33FEED33FDEC33FCD5F0ED2203
:0E0AA700E5F0247EA2D513CC92E7CDCEFF223F
:100AB500E9D2E7C933E833F892D5EDD2E7CD33EC87
:070AC50033FC5002B2D52200
:100ACC00EC30E7100FBF000C0EBE00080DBD00048B
:100ADC000BEB6014A2D5EB13FCED92E7FD2274FF37
:100AEC00FCFDFEFF22E480F8A2D574FF13FC7D8090
:030AFC00E480EFA4
:03000000020C717E
:0C0C7100787FE4F6D8FD75811B020CB8FA
:100AFF00EF8DF0A4A8F0CF8CF0A428CE8DF0A42E0B
:020B0F00FE22C4
:0E0B1100C3E49FFFE49EFEE49DFDE49CFC22F5
:100C7D00020CFDE493A3F8E493A34003F68001F284
:100C8D0008DFF48029E493A3F85407240CC8C33378
:100C9D00C4540F4420C8834004F456800146F6DF47
:100CAD00E4800B0102040810204080900DBCE47E0E
:100CBD00019360BCA3FF543F30E509541FFEE4933C
:100CCD00A360010ECF54C025E060A840B8E493A303
:100CDD00FAE493A3F8E493A3C8C582C8CAC583CA2E
:100CED00F0A3C8C582C8CAC583CADFE9DEE780BEE6
:010DC800002A
:00000001FF
