:0C0DD600040841200000040C4120000033
:03005300020DE3B8
:010DE30032DD
:03000B00020DC91A
:0D0DC900C0E00515E51570020514D0E032FC
:03001B00020B1FB6
:100B1F00C0E0C0F0C083C082C0D075D000C000C09C
:0D0B2F0001C002C003C004C005C006C0071D
:100B3C00A2B4E4FE33FF7C007D0A120AFFAC06ADC2
:100B4C0007EC120A7C7BCD7ACC79CC783D1208F874
:100B5C00C004C005C006C0077466FFFEFD7C3FAB39
:100B6C000BAA0AA909A8081208F8D003D002D001D0
:100B7C00D0001208078F0B8E0A8D098C08A2B3E4E3
:100B8C00FE33FF7C007D0A120AFFAC06AD07EC12A7
:100B9C000A7C7BCD7ACC79CC783D1208F8C004C0A5
:100BAC0005C006C0077466FFFEFD7C3FAB0FAA0EA6
:100BBC00A90DA80C1208F8D003D002D001D0001255
:100BCC0008078F0F8E0E8D0D8C0CE4FFFE7DA07C24
:100BDC0040AB0BAA0AA909A8081209FE600A400832
:100BEC00751A00751B018006751A00751B00E4FF51
:100BFC00FE7DA07C40AB0FAA0EA90DA80C1209FE1D
:100C0C00600A4008751C00751D018006751C007576
:100C1C001D00E51B65137004E51A6512600E851A3C
:100C2C0012851B137518007519018006751800754F
:100C3C001900E51D65177004E51C65166006851C1A
:040C4C0016851D17D5
:100C5000D007D006D005D004D003D002D001D000F8
:0B0C6000D0D0D082D083D0F0D0E032A2
:100D560043B22053B1DF43B20453B1FBE4F510F5BF
:100D660011F514F515F518F519F512751301F516A3
:100D7600F517C2B2C2B5D2B4D2B3438F105389F0BD
:100D8600538E7F758CFC758A1853890F538EBF75E9
:0E0D96008DFE758B0CD2A9D2ABD28CD28E22E0
:100DA400E4FDFCC3ED9FEC9E501AE4FAFB00000046
:100DB40000000BBB00010ABA02F3BB58F00DBD00E2
:040DC400010C80DFBF
:010DC8002208
:100CF700120D56D2AFE510704FE51114601D146048
:100D07003124027043758702C2B27F017E00120D43
:100D1700A4D2B575100075110180DAE512451324C8
:100D2700FF92B2E5176401451670CAF510751102F6
:100D370080C3E512451324FF92B2E517451670B537
:0F0D4700C2B5F510F51180ADE4F510F51180A6D9
:10080000020AEAE86480F8E933E83360110460F032
:10081000ED33EC337009E8FCE9FDEAFEEBFF22045E
:1008200060DED3EB9FEA9EE99DE8C2E78CF0C2F759
:1008300095F0400CE8CCF8E9CDF9EACEFAEBCFFB25
:10084000120AB585D0F05804700320D5B3E80470BF
:10085000075002B2D5020AF492D5EC0460F7E4CC5A
:10086000C0E0C398F8603B94186008400DD0E0FBEE
:10087000020ACCE4FBFAC9FC8028E830E406E4C9AB
:10088000FBE4CAFCE830E305E4C9CACBFCE8540742
:100890006010F8C3E913F9EA13FAEB13FBEC13FC4D
:1008A000D8F130F52FC3E49CFCEF9BFFEE9AFEEDF0
:1008B00099FDD0E0FBEF4E4D4C701222DB03020A93
:1008C000F1EC2CFCEF33FFEE33FEED33FDED30E7C2
:1008D000EB020ACCEF2BFFEE3AFEED39FDD0E0FB48
:1008E00050130BBB0003020AF4ED13FDEE13FEEFF1
:0808F00013FFEC13FC020ACC1B
:1008F800EC4D6011E8497017ED33EC3304600DE4FA
:10090800FCFFFEFD22E933E8330470F8020AEA121C
:100918000AB558046009E4CC24815006285009021D
:100928000AF4284003020AF1C0E0EB4A7044B98097
:1009380006D0E0FB020AE0EF4E701CBD8008EBFF1A
:10094800EAFEE9FD80EBE98DF0A4FEE5F00209E19D
:10095800E9CDF9EAFEEBFFEF89F0A4FCE5F0CE89DA
:10096800F0A42EFFE435F0CD89F0A42DFEE435F097
:100978008067EF4E7005BD80D780C3EF8BF0A4ACC5
:10098800F0EE8BF0A42CFCE435F0F8EF8AF0A42C00
:10099800E5F038FCE433CB8DF0A42CFCE5F03BF813
:1009A800EE8AF0A42CFCE5F038F8E433CF89F0A403
:1009B8002CFCE5F038CF3400CE89F0A42FFFE5F009
:1009C8003EFEE433C98DF0A42EFEE5F039CD8AF061
:1009D800A42FFFE5F03EFEE43DFD33D0E0FB5007D9
:1009E8000BBB000F020AF4EC2CFCEF33FFEE33FED6
:0609F800ED33FD020ACC04
:1009FE0074F8CC6480CCC86480C8F58204604FC3A0
:100A0E00EB9FF5F0EA9E42F0E99D42F0E89C45F03E
:100A1E00603C501DE5825FFFE582D313CB5BCBF4C8
:100A2E002B5582FB50280ABA002409B900200880F1
:100A3E001DE5825BFBE582D313CF5FCFF4C3132F8B
:100A4E005582FF50090EBE00050DBD00010CC3EB13
:100A5E009FF5F0EA9E42F0E99D42F0E89C45F06079
:090A6E0007CC4820E701B3EC229B
:100A770075F020800E75F010800575F0087D007EFA
:100A8700007F003392D530D503120B11EC334010A1
:100A9700EF33FFEE33FEED33FDEC33FCD5F0ED2203
:0E0AA700E5F0247EA2D513CC92E7CDCEFF223F
:100AB500E9D2E7C933E833F892D5EDD2E7CD33EC87
:070AC50033FC5002B2D52200
:100ACC00EC30E7100FBF000C0EBE00080DBD00048B
:100ADC000BEB6014A2D5EB13FCED92E7FD2274FF37
:100AEC00FCFDFEFF22E480F8A2D574FF13FC7D8090
:030AFC00E480EFA4
:03000000020C6B84
:0C0C6B00787FE4F6D8FD75811D020CB204
:100AFF00EF8DF0A4A8F0CF8CF0A428CE8DF0A42E0B
:020B0F00FE22C4
:0E0B1100C3E49FFFE49EFEE49DFDE49CFC22F5
:100C7700020CF7E493A3F8E493A34003F68001F290
:100C870008DFF48029E493A3F85407240CC8C3337E
:100C9700C4540F4420C8834004F456800146F6DF4D
:100CA700E4800B0102040810204080900DD6E47EFA
:100CB700019360BCA3FF543F30E509541FFEE49342
:100CC700A360010ECF54C025E060A840B8E493A309
:100CD700FAE493A3F8E493A3C8C582C8CAC583CA34
:100CE700F0A3C8C582C8CAC583CADFE9DEE780BEEC
:010DE2000010
:00000001FF
