:0C0DFC00040841200000040C412000000D
:03000B00020BBF26
:100BBF00C0E0C0F0C083C082C0D075D000C000C0FC
:0D0BCF0001C002C003C004C005C006C0077D
:100BDC00E4FFFE7D107C41AB0BAA0AA909A8081200
:100BEC0008F8C004C005C006C007A2B4E4FE33FF79
:100BFC007C007D0A120B9FAC06AD07EC120B1CD0CF
:100C0C0003D002D001D000120807E4FBFA79207857
:100C1C0041120A018F0B8E0A8D098C08E4FFFE7DB0
:100C2C00107C41AB0FAA0EA90DA80C1208F8C00439
:100C3C00C005C006C007A2B3E4FE33FF7C007D0AEA
:100C4C00120B9FAC06AD07EC120B1CD003D002D0DC
:100C5C0001D000120807E4FBFA79207841120A014E
:100C6C008F0F8E0E8D0D8C0CE4FFFE7DA07C40ABA7
:100C7C000BAA0AA909A808120A9E600A400875184E
:100C8C00007519018006751800751900E4FFFE7DCA
:100C9C00A07C40AB0FAA0EA90DA80C120A9E600AEC
:100CAC004008751A00751B018006751A00751B002B
:100CBC00E51965137004E5186512600C851812852A
:100CCC001913751600751701E51B65157004E51AE7
:0A0CDC0065146006851A14851B15C7
:100CE600D007D006D005D004D003D002D001D00062
:0B0CF600D0D0D082D083D0F0D0E0320C
:100D8D0043B10843B11043B22043B204E4F510F56A
:100D9D0011F516F517F512751301F514F515D2B2F7
:100DAD00C2B5E58954F04401F589D2A9D28CD2AFF0
:010DBD002213
:100DBE00E4FDFCC3ED9FEC9E501AE4FAFB0000002C
:100DCE0000000BBB00010ABA02F3BB58F00DBD00C8
:040DDE00010C80DFA5
:010DE20022EE
:100DE300120D8D7F887E13120DBEC2B2D2B57FF471
:090DF3007E01120DBED2B280FE99
:10080000020B8AE86480F8E933E83360110460F091
:10081000ED33EC337009E8FCE9FDEAFEEBFF22045E
:1008200060DED3EB9FEA9EE99DE8C2E78CF0C2F759
:1008300095F0400CE8CCF8E9CDF9EACEFAEBCFFB25
:10084000120B5585D0F05804700320D5B3E804701E
:10085000075002B2D5020B9492D5EC0460F7E4CCB9
:10086000C0E0C398F8603B94186008400DD0E0FBEE
:10087000020B6CE4FBFAC9FC8028E830E406E4C90A
:10088000FBE4CAFCE830E305E4C9CACBFCE8540742
:100890006010F8C3E913F9EA13FAEB13FBEC13FC4D
:1008A000D8F130F52FC3E49CFCEF9BFFEE9AFEEDF0
:1008B00099FDD0E0FBEF4E4D4C701222DB03020B92
:1008C00091EC2CFCEF33FFEE33FEED33FDED30E722
:1008D000EB020B6CEF2BFFEE3AFEED39FDD0E0FBA7
:1008E00050130BBB0003020B94ED13FDEE13FEEF50
:0808F00013FFEC13FC020B6C7A
:1008F800EC4D6011E8497017ED33EC3304600DE4FA
:10090800FCFFFEFD22E933E8330470F8020B8A127B
:100918000B5558046009E4CC24815006285009027C
:100928000B94284003020B91C0E0EB4A7044B98055
:1009380006D0E0FB020B80EF4E701CBD8008EBFF79
:10094800EAFEE9FD80EBE98DF0A4FEE5F00209E19D
:10095800E9CDF9EAFEEBFFEF89F0A4FCE5F0CE89DA
:10096800F0A42EFFE435F0CD89F0A42DFEE435F097
:100978008067EF4E7005BD80D780C3EF8BF0A4ACC5
:10098800F0EE8BF0A42CFCE435F0F8EF8AF0A42C00
:10099800E5F038FCE433CB8DF0A42CFCE5F03BF813
:1009A800EE8AF0A42CFCE5F038F8E433CF89F0A403
:1009B8002CFCE5F038CF3400CE89F0A42FFFE5F009
:1009C8003EFEE433C98DF0A42EFEE5F039CD8AF061
:1009D800A42FFFE5F03EFEE43DFD33D0E0FB5007D9
:1009E8000BBB000F020B94EC2CFCEF33FFEE33FE35
:0609F800ED33FD020B6C63
:1009FE00020B94EC5D046005E859047003020B8A47
:100A0E00120B55580460F6EC4860F2EC7004FDFED3
:100A1E00FF22C860DB2481C85009C39860025006CB
:100A2E00020B919850CAF582E9294B4A7005AB82A8
:100A3E00020B8075F0007C1A7880C3EF9BEE9AED66
:100A4E0099400DC3EF9BFFEE9AFEED99FDE842F043
:100A5E00DC23ACF0D0E0FFD0E0FED0E0FDAB822096
:100A6E00E7101BEB60BAEC2CFCEF33FFEE33FEED20
:100A7E0033FD020B6CE803F830E705C0F075F000AB
:100A8E00EF2FFFEE33FEED33FD40B830E7C280AA04
:100A9E0074F8CC6480CCC86480C8F58204604FC3FF
:100AAE00EB9FF5F0EA9E42F0E99D42F0E89C45F09E
:100ABE00603C501DE5825FFFE582D313CB5BCBF428
:100ACE002B5582FB50280ABA002409B90020088051
:100ADE001DE5825BFBE582D313CF5FCFF4C3132FEB
:100AEE005582FF50090EBE00050DBD00010CC3EB73
:100AFE009FF5F0EA9E42F0E99D42F0E89C45F060D9
:090B0E0007CC4820E701B3EC22FA
:100B170075F020800E75F010800575F0087D007E59
:100B2700007F003392D530D503120BB1EC33401060
:100B3700EF33FFEE33FEED33FDEC33FCD5F0ED2262
:0E0B4700E5F0247EA2D513CC92E7CDCEFF229E
:100B5500E9D2E7C933E833F892D5EDD2E7CD33ECE6
:070B650033FC5002B2D5225F
:100B6C00EC30E7100FBF000C0EBE00080DBD0004EA
:100B7C000BEB6014A2D5EB13FCED92E7FD2274FF96
:100B8C00FCFDFEFF22E480F8A2D574FF13FC7D80EF
:030B9C00E480EF03
:03000000020D01ED
:0C0D0100787FE4F6D8FD75811B020D48D8
:100B9F00EF8DF0A4A8F0CF8CF0A428CE8DF0A42E6A
:020BAF00FE2224
:0E0BB100C3E49FFFE49EFEE49DFDE49CFC2255
:100D0D00020DE3E493A3F8E493A34003F68001F20C
:100D1D0008DFF48029E493A3F85407240CC8C333E7
:100D2D00C4540F4420C8834004F456800146F6DFB6
:100D3D00E4800B0102040810204080900DFCE47E3D
:100D4D00019360BCA3FF543F30E509541FFEE493AB
:100D5D00A360010ECF54C025E060A840B8E493A372
:100D6D00FAE493A3F8E493A3C8C582C8CAC583CA9D
:100D7D00F0A3C8C582C8CAC583CADFE9DEE780BE55
:010E080000E9
:00000001FF
