:0C0EDA00040842C80000040C42C80000DC
:03000B00020BECF9
:100BEC00C0E0C0F0C083C082C0D075D000C000C0CF
:0D0BFC0001C002C003C004C005C006C00750
:100C0900758CFC758A187F007E007D107C41AB0BCA
:100C1900AA0AA909A8081208F8C004C005C006C094
:100C290007A2B4E4FE33FF7C007D64120B9FAC067F
:100C3900AD07EC120B1CA804A905AA06AB07D0073F
:100C4900D006D005D0041208077B007A00792078F5
:100C590041120A018F0B8E0A8D098C087F007E00D4
:100C69007D107C41AB0FAA0EA90DA80C1208F8C083
:100C790004C005C006C007A2B3E4FE33FF7C007DB3
:100C890064120B9FAC06AD07EC120B1CA804A90556
:100C9900AA06AB07D007D006D005D0041208077BF7
:100CA900007A0079207841120A018F0F8E0E8D0D7E
:100CB9008C0C7F007E007D487C42AB0BAA0AA909F7
:100CC900A808120A9E600A4008751E00751F018057
:100CD90006751E00751F007F007E007D487C42ABB3
:100CE9000FAA0EA90DA80C120A9E600A40087520C9
:100CF900007521018006752000752100E51F651327
:100D09007004E51E6512600C851E12851F13751689
:100D190000751701E52165157004E5206514600665
:060D290085201485211550
:100D2F00D007D006D005D004D003D002D001D00018
:0B0D3F00D0D0D082D083D0F0D0E032C2
:100E9D0043B22053B1FF43B20453B1FF7510007537
:100EAD001100751600751700751200751301751474
:100EBD0000751500D2B2C2B5D2B4D2B3E58954F0E3
:0D0ECD00FFEF4401F589D2A9D28CD2AF22EB
:040E51008E188F194F
:100E5500751A00751B00751C00751D00751A007547
:100E65001B00C3E51B9519E51A9518502A751C003A
:100E7500751D00C3E51D9458E51C9402500F000034
:100E8500000000051DE51D7002051C80E6051BE53B
:070E95001B7002051A80CB5F
:010E9C002233
:100DD600120E9DE5118510F0120BBF0DF100000EED
:100DE6001600010E2E000200000DD9E5174516600B
:100DF600E2E513451270DC751600751700C2B27F66
:100E0600017E00120E51D2B575100075110180C316
:100E1600E512451324FF92B2E5156401451470B33B
:100E260075100075110280ABE512451324FF92B2CE
:100E3600E5154514709DC2B575100075110075163F
:0B0E460000751700808D808B808922D2
:10080000020B8AE86480F8E933E83360110460F091
:10081000ED33EC337009E8FCE9FDEAFEEBFF22045E
:1008200060DED3EB9FEA9EE99DE8C2E78CF0C2F759
:1008300095F0400CE8CCF8E9CDF9EACEFAEBCFFB25
:10084000120B5585D0F05804700320D5B3E804701E
:10085000075002B2D5020B9492D5EC0460F7E4CCB9
:10086000C0E0C398F8603B94186008400DD0E0FBEE
:10087000020B6CE4FBFAC9FC8028E830E406E4C90A
:10088000FBE4CAFCE830E305E4C9CACBFCE8540742
:100890006010F8C3E913F9EA13FAEB13FBEC13FC4D
:1008A000D8F130F52FC3E49CFCEF9BFFEE9AFEEDF0
:1008B00099FDD0E0FBEF4E4D4C701222DB03020B92
:1008C00091EC2CFCEF33FFEE33FEED33FDED30E722
:1008D000EB020B6CEF2BFFEE3AFEED39FDD0E0FBA7
:1008E00050130BBB0003020B94ED13FDEE13FEEF50
:0808F00013FFEC13FC020B6C7A
:1008F800EC4D6011E8497017ED33EC3304600DE4FA
:10090800FCFFFEFD22E933E8330470F8020B8A127B
:100918000B5558046009E4CC24815006285009027C
:100928000B94284003020B91C0E0EB4A7044B98055
:1009380006D0E0FB020B80EF4E701CBD8008EBFF79
:10094800EAFEE9FD80EBE98DF0A4FEE5F00209E19D
:10095800E9CDF9EAFEEBFFEF89F0A4FCE5F0CE89DA
:10096800F0A42EFFE435F0CD89F0A42DFEE435F097
:100978008067EF4E7005BD80D780C3EF8BF0A4ACC5
:10098800F0EE8BF0A42CFCE435F0F8EF8AF0A42C00
:10099800E5F038FCE433CB8DF0A42CFCE5F03BF813
:1009A800EE8AF0A42CFCE5F038F8E433CF89F0A403
:1009B8002CFCE5F038CF3400CE89F0A42FFFE5F009
:1009C8003EFEE433C98DF0A42EFEE5F039CD8AF061
:1009D800A42FFFE5F03EFEE43DFD33D0E0FB5007D9
:1009E8000BBB000F020B94EC2CFCEF33FFEE33FE35
:0609F800ED33FD020B6C63
:1009FE00020B94EC5D046005E859047003020B8A47
:100A0E00120B55580460F6EC4860F2EC7004FDFED3
:100A1E00FF22C860DB2481C85009C39860025006CB
:100A2E00020B919850CAF582E9294B4A7005AB82A8
:100A3E00020B8075F0007C1A7880C3EF9BEE9AED66
:100A4E0099400DC3EF9BFFEE9AFEED99FDE842F043
:100A5E00DC23ACF0D0E0FFD0E0FED0E0FDAB822096
:100A6E00E7101BEB60BAEC2CFCEF33FFEE33FEED20
:100A7E0033FD020B6CE803F830E705C0F075F000AB
:100A8E00EF2FFFEE33FEED33FD40B830E7C280AA04
:100A9E0074F8CC6480CCC86480C8F58204604FC3FF
:100AAE00EB9FF5F0EA9E42F0E99D42F0E89C45F09E
:100ABE00603C501DE5825FFFE582D313CB5BCBF428
:100ACE002B5582FB50280ABA002409B90020088051
:100ADE001DE5825BFBE582D313CF5FCFF4C3132FEB
:100AEE005582FF50090EBE00050DBD00010CC3EB73
:100AFE009FF5F0EA9E42F0E99D42F0E89C45F060D9
:090B0E0007CC4820E701B3EC22FA
:100B170075F020800E75F010800575F0087D007E59
:100B2700007F003392D530D503120BB1EC33401060
:100B3700EF33FFEE33FEED33FDEC33FCD5F0ED2262
:0E0B4700E5F0247EA2D513CC92E7CDCEFF229E
:100B5500E9D2E7C933E833F892D5EDD2E7CD33ECE6
:070B650033FC5002B2D5225F
:100B6C00EC30E7100FBF000C0EBE00080DBD0004EA
:100B7C000BEB6014A2D5EB13FCED92E7FD2274FF96
:100B8C00FCFDFEFF22E480F8A2D574FF13FC7D80EF
:030B9C00E480EF03
:03000000020D4AA4
:0C0D4A00787FE4F6D8FD758121020D9140
:100B9F00EF8DF0A4A8F0CF8CF0A428CE8DF0A42E6A
:020BAF00FE2224
:0E0BB100C3E49FFFE49EFEE49DFDE49CFC2255
:100BBF00D083D082F8E4937012740193700DA3A3C5
:100BCF0093F8740193F5828883E473740293B5F0FC
:0D0BDF00067403936860E9A3A3A3A380D864
:100D5600020DD6E493A3F8E493A34003F68001F2D0
:100D660008DFF48029E493A3F85407240CC8C3339E
:100D7600C4540F4420C8834004F456800146F6DF6D
:100D8600E4800B0102040810204080900EDAE47E15
:100D9600019360BCA3FF543F30E509541FFEE49362
:100DA600A360010ECF54C025E060A840B8E493A329
:100DB600FAE493A3F8E493A3C8C582C8CAC583CA54
:100DC600F0A3C8C582C8CAC583CADFE9DEE780BE0C
:010EE600000B
:00000001FF
