:0C004300042141200000042541200000A1
:03005300020003A5
:0100030032CA
:03000B0002000EE2
:10000E00C0E0C0D075D000C004C005C006C007AFA8
:10001E002DAE2CAD2BAC2AEF2401F52DE43EF52CA4
:10002E00E43DF52BE43CF52AD007D006D005D004EC
:05003E00D0D0D0E0323B
:03006300020396FF
:0D039600C0E0C0F0C083C082C0D075D008A8
:1003A300A2B4E4FE33FF7C007D0A120365AC0EADFC
:1003B3000FEC1202E27BCD7ACC79CC783D12015E50
:1003C300C00CC00DC00EC00F7466FFFEFD7C3FABBA
:1003D30024AA23A922A82112015ED00BD00AD00996
:1003E300D00812006D8F248E238D228C21A2B3E4BA
:1003F300FE33FF7C007D0A120365AC0EAD0FEC12D9
:1004030002E27BCD7ACC79CC783D12015EC00CC080
:100413000DC00EC00F7466FFFEFD7C3FAB28AA27FC
:10042300A926A82512015ED00BD00AD009D0081244
:10043300006D8F288E278D268C25E4FFFE7DA07C02
:1004430040AB24AA23A922A8211202646006400417
:10045300D2038002C203E4FFFE7DA07C40AB28AA46
:1004630027A926A82512026460064004D20480024C
:10047300C204A203300001B35008A2039200D202C7
:100483008002C202A204300101B35004A20492010B
:0B049300D0D0D082D083D0F0D0E03277
:1005F90043B22053B1DF43B20453B1FBE4F52DF507
:100609002CF52BF52AF529AF2DAE2CAD2BAC2A8F65
:10061900318E308D2F8C2EC202D200C201C2B2C2DD
:10062900B5D2B4D2B3438F105389F0538E7F758CF2
:10063900FC758A18438E0475D7A075D615D2A943BF
:08064900AF04D28C438E102295
:08059A008F138E128D118C10DD
:1005A200AF2DAE2CAD2BAC2A8F178E168D158C1459
:1005B200AF13AE12AD11AC10AB17AA16A915A81441
:1005C200C31203854015E5179513FFE5169512FE34
:1005D200E5159511FDE5149510FC22AF13AE12AD91
:1005E20011AC10120377EF2517FFEE3516FEED352D
:0605F20015FDEC3514FCC0
:0105F80022E0
:10065100AB07AF2DAE2CAD2BAC2A8F318E308D2F49
:050661008C2E8B292204
:10052A001205F9D2AFE52914601614601E14604949
:10053A0024037055C2B5C2B2758702007F01804498
:10054A00A20092B22000DE7F028039D2B5300109C2
:10055A00A20092B27F03120651AF31AE30AD2FAC7A
:10056A002E12059AE47BE87A03F9F8C31203855040
:10057A00B4A20092B2E4FF800BA20092B22001A5BD
:10058A00C2B5E4FF120651809CE4FF120651809521
:10006600020350E86480F8E933E83360110460F075
:10007600ED33EC337009E8FCE9FDEAFEEBFF220400
:1000860060DED3EB9FEA9EE99DE8C2E78CF0C2F7FB
:1000960095F0400CE8CCF8E9CDF9EACEFAEBCFFBC7
:1000A60012031B85D0F05804700320D5B3E8047002
:1000B600075002B2D502035A92D5EC0460F7E4CC9D
:1000C600C0E0C398F8603B94186008400DD0E0FB90
:1000D600020332E4FBFAC9FC8028E830E406E4C9EE
:1000E600FBE4CAFCE830E305E4C9CACBFCE85407E4
:1000F6006010F8C3E913F9EA13FAEB13FBEC13FCEF
:10010600D8F130F52FC3E49CFCEF9BFFEE9AFEED91
:1001160099FDD0E0FBEF4E4D4C701222DB0302033B
:1001260057EC2CFCEF33FFEE33FEED33FDED30E7FD
:10013600EB020332EF2BFFEE3AFEED39FDD0E0FB8A
:1001460050130BBB000302035AED13FDEE13FEEF33
:0801560013FFEC13FC0203325D
:10015E00EC4D6011E8497017ED33EC3304600DE49B
:10016E00FCFFFEFD22E933E8330470F8020350125F
:10017E00031B58046009E4CC248150062850090260
:10018E00035A284003020357C0E0EB4A7044B9807B
:10019E0006D0E0FB020346EF4E701CBD8008EBFF5D
:1001AE00EAFEE9FD80EBE98DF0A4FEE5F0020247E0
:1001BE00E9CDF9EAFEEBFFEF89F0A4FCE5F0CE897C
:1001CE00F0A42EFFE435F0CD89F0A42DFEE435F039
:1001DE008067EF4E7005BD80D780C3EF8BF0A4AC67
:1001EE00F0EE8BF0A42CFCE435F0F8EF8AF0A42CA2
:1001FE00E5F038FCE433CB8DF0A42CFCE5F03BF8B5
:10020E00EE8AF0A42CFCE5F038F8E433CF89F0A4A4
:10021E002CFCE5F038CF3400CE89F0A42FFFE5F0AA
:10022E003EFEE433C98DF0A42EFEE5F039CD8AF002
:10023E00A42FFFE5F03EFEE43DFD33D0E0FB50077A
:10024E000BBB000F02035AEC2CFCEF33FFEE33FE18
:06025E00ED33FD02033246
:1002640074F8CC6480CCC86480C8F58204604FC341
:10027400EB9FF5F0EA9E42F0E99D42F0E89C45F0E0
:10028400603C501DE5825FFFE582D313CB5BCBF46A
:100294002B5582FB50280ABA002409B90020088093
:1002A4001DE5825BFBE582D313CF5FCFF4C3132F2D
:1002B4005582FF50090EBE00050DBD00010CC3EBB5
:1002C4009FF5F0EA9E42F0E99D42F0E89C45F0601B
:0902D40007CC4820E701B3EC223D
:1002DD0075F020800E75F010800575F0087D007E9C
:1002ED00007F003392D530D503120377EC334010E5
:1002FD00EF33FFEE33FEED33FDEC33FCD5F0ED22A5
:0E030D00E5F0247EA2D513CC92E7CDCEFF22E0
:10031B00E9D2E7C933E833F892D5EDD2E7CD33EC28
:07032B0033FC5002B2D522A1
:10033200EC30E7100FBF000C0EBE00080DBD00042C
:100342000BEB6014A2D5EB13FCED92E7FD2274FFD8
:10035200FCFDFEFF22E480F8A2D574FF13FC7D8031
:03036200E480EF45
:0300000002049E59
:0C049E00787FE4F6D8FD7581310204E59A
:10036500EF8DF0A4A8F0CF8CF0A428CE8DF0A42EAC
:02037500FE2266
:0E037700C3E49FFFE49EFEE49DFDE49CFC2297
:10038500EB9FF5F0EA9E42F0E99D42F0E89C45F0CE
:010395002245
:1004AA0002052AE493A3F8E493A34003F68001F239
:1004BA0008DFF48029E493A3F85407240CC8C33353
:1004CA00C4540F4420C8834004F456800146F6DF22
:1004DA00E4800B0102040810204080900043E47E6F
:1004EA00019360BCA3FF543F30E509541FFEE49317
:1004FA00A360010ECF54C025E060A840B8E493A3DE
:10050A00FAE493A3F8E493A3C8C582C8CAC583CA08
:10051A00F0A3C8C582C8CAC583CADFE9DEE780BEC0
:01004F0000B0
:00000001FF
