:030003000110FFEA
:03005300020007A1
:0100070032C6
:03000B0002000EE2
:10000E00C0E0C0D075D000C004C005C006C007AFA8
:10001E0019AE18AD17AC16EF2401F519E43EF5181C
:10002E00E43DF517E43CF516D007D006D005D00414
:05003E00D0D0D0E0323B
:0300630002023B5B
:07023B00C0E0C0D075D0083F
:10024200D203C204E51025E0FFA2B4E4334FF51057
:10025200FF3395E0FEEFF44E7004D2038006EF4EBA
:100262007002C203A203300001B35008A20392003D
:10027200D2028002C202A2B39204A204300101B3EC
:060282005004A2049201E9
:05028800D0D0D0E032EF
:1001E30043B22053B1DF43B20453B1FBE4F519F535
:1001F30018F517F516F511AF19AE18AD17AC168F24
:100203001D8E1C8D1B8C1AC202D200C201C2B2C247
:10021300B5D2B4D2B3438F105389F0538E7F758C0C
:10022300EC758A78438E0475D7A075D615D2A94389
:08023300AF04D28C438E1022AF
:080184008F248E238D228C21B3
:10018C00AF19AE18AD17AC168F288E278D268C257F
:10019C00AF24AE23AD22AC21AB28AA27A926A825D3
:1001AC00C312029B4015E5289524FFE5279523FEF5
:1001BC00E5269522FDE5259521FC22AF24AE23AD45
:1001CC0022AC2112028DEF2528FFEE3527FEED35EE
:0601DC0026FDEC3525FCB8
:0101E20022FA
:1002AC00AB07AF19AE18AD17AC168F1D8E1C8D1B7E
:0502BC008C1A8B1122D9
:100066001201E3D2AFE51114601614601E14604449
:1000760024037076C2B5C2B2758702007F01806420
:10008600A20092B22000DE7F028059D2B5A2009271
:10009600B23001057F031202ACAF1DAE1CAD1BAC26
:1000A6001A120184E47BC8FAF9F8C312029B50B510
:1000B600E4FF8030A20092B22001AAAF19AE18ADBB
:1000C60017AC168F158E148D138C12AF15AE14AD9A
:1000D60013AC12120184E47B64FAF9F8D312029B82
:1000E60050E9E4FF1202AC02006BE4FF1202AC021C
:0200F600006B9D
:030000000200F803
:0C00F800787FE4F6D8FD75812802013FF6
:0E028D00C3E49FFFE49EFEE49DFDE49CFC2282
:10029B00EB9FF5F0EA9E42F0E99D42F0E89C45F0B9
:0102AB002230
:10010400020066E493A3F8E493A34003F68001F2AB
:1001140008DFF48029E493A3F85407240CC8C333FC
:10012400C4540F4420C8834004F456800146F6DFCB
:10013400E4800B0102040810204080900003E47E58
:10014400019360BCA3FF543F30E509541FFEE493C0
:10015400A360010ECF54C025E060A840B8E493A387
:10016400FAE493A3F8E493A3C8C582C8CAC583CAB2
:10017400F0A3C8C582C8CAC583CADFE9DEE780BE6A
:0100060000F9
:00000001FF
